:100000001FC039C038C037C036C035C034C033C057
:1000100032C031C030C02FC02EC02DC02CC02BC06C
:100020002AC02AC028C027C026C025C024C023C09B
:1000300022C021C06364696E6F70737578585B006D
:1000400011241FBECFEFD4E0DEBFCDBF11E0A0E092
:10005000B1E0E8EBF4E102C005900D92AE31B107DA
:10006000D9F721E0AEE1B1E001C01D92A432B207A0
:10007000E1F7D1D41FCAC4CF1F920F920FB60F92CF
:1000800011242F933F934F935F936F937F938F939D
:100090009F93AF93BF93EF93FF93B4D456D3ADD454
:1000A000FF91EF91BF91AF919F918F917F916F9150
:1000B0005F914F913F912F910F900FBE0F901F9026
:1000C000189586B186B1869591E08927817090E078
:1000D0000895429A2FE788E391E0215080409040B4
:1000E000E1F700C00000439A2FE788E391E0215038
:1000F00080409040E1F700C00000089520E030E02B
:10010000281739071CF5429AEFE4F3EC3197F1F721
:1001100000C000004298439AEFE4F3EC3197F1F706
:1001200000C000004398449AEFE4F3EC3197F1F7F4
:1001300000C000004498459AEFE4F3EC3197F1F7E2
:1001400000C0000045982F5F3F4FDACF29980895EF
:1001500020E030E0281739071CF5459AEFE4F3EC6E
:100160003197F1F700C000004598449AEFE4F3ECB2
:100170003197F1F700C000004498439AEFE4F3ECA4
:100180003197F1F700C000004398429AEFE4F3EC96
:100190003197F1F700C0000042982F5F3F4FDACF50
:1001A000299A0895009719F42F982E980895813070
:1001B000910529F08230910511F0039709F42F9AE7
:1001C00008952F982E9A8130910541F08230910543
:1001D00029F08330910511F0049709F42E9A0895BF
:1001E0002E9A2F9A08952E982F980895009711F41B
:1001F000289803C0019709F4289AF5DF089585E04F
:1002000090E02F982E982FE33DE043E021503040BE
:100210004040E1F700C000002F9A2E9A2FE33DE006
:1002200043E0215030404040E1F700C0000001971A
:1002300041F7089584E190E02F982E98E3E2F4EFDF
:100240003197F1F700C000002F9A2E9AE3E2F4EF05
:100250003197F1F700C00000019771F7089580EF22
:100260008AB98FE08BB989EF90E00197F1F700C070
:10027000000008958FE08AB980EF8BB989EF90E094
:100280000197F1F700C000000895A1E0B0E0EAE4B2
:10029000F1E04FC5E4DF489B07C0499B07C04A9B7C
:1002A00007C089B180E005C083E003C082E001C0DF
:1002B00081E08983DFDF89814C9902C0835F0AC0B6
:1002C0004D9902C0875F06C04E9902C08B5F02C085
:1002D0004F9B8F5FE3EDF0E33197F1F700C0000033
:1002E0002196E2E042C5813309F1823311F1833373
:1002F00019F1813421F1843329F1853331F18633C9
:1003000039F1823441F1873349F1883351F189332E
:1003100059F1833461F18A3269F1803371F18332AA
:1003200079F1843481F184E690E0089580E190E0F1
:1003300008958FE090E008958EE090E008958DE0BC
:1003400090E008958CE090E008958BE090E00895AF
:100350008AE090E0089589E090E0089588E090E0D8
:10036000089587E090E0089586E090E0089585E0A4
:1003700090E0089584E090E0089583E090E008958F
:1003800082E090E0089581E090E008958031910549
:1003900071F18F30910569F18E30910561F18D30E9
:1003A000910559F18C30910551F18B30910549F14E
:1003B0008A30910541F18930910539F188309105F4
:1003C00031F18730910529F18630910521F1853091
:1003D000910519F18430910511F18330910509F1EE
:1003E0008230910501F1019701F181E5089581E3E2
:1003F000089582E3089583E3089581E4089584E3F2
:10040000089585E3089586E3089582E4089587E3D7
:10041000089588E3089589E3089583E408958AE2BE
:10042000089580E3089583E2089584E40895A2E0A6
:10043000B0E0ECE1F2E077C46B018B019C01285F36
:100440003F4FFB01DC01ED90FD90CD016191719179
:10045000E616F70631F4A217B307A1F781E090E0A2
:100460001BC049835A83CBDE4981E42F5A81F52F83
:10047000A601485F5F4FD8012D913D918D0181917B
:1004800091912817390731F4A417B507A1F783E034
:1004900090E002C082E090E02296E8E060C4813003
:1004A000910551F461E070E08FE090E027DE80E399
:1004B000DCD180E090E00895009749F460E070E0BE
:1004C0008FE090E045DE81E3D0D181E090E00895B7
:1004D000DC01ED91FC91119712966D917C9113972F
:1004E00014964D915C91159716962D913C91179706
:1004F000CF018B7F0997D9F1CF0101978230910508
:10050000B0F10397029798F1CB018B7F099779F1AE
:10051000CB0101978230910550F10397029738F192
:10052000CA018B7F099719F1CA01019782309105A1
:10053000F0F003970297D8F0C9018B7F0997B9F0C3
:10054000C90101978230910590F00397029778F0E6
:1005500081E0339769F46330710551F490E04330E2
:10056000510541F42330310529F480E0089580E0FD
:1005700090E0089508953D9A3C9A3B9A3A9A269ABB
:10058000279A219A209A87B18C7F87B988B1836096
:1005900088B945984498439842982E982F9829985E
:1005A000289808959091C00095FFFCCF8093C600D5
:1005B00080E090E008958091C00087FFFCCF80919B
:1005C000C60008951092C5008CE08093C40082E0BC
:1005D0008093C0008EE08093C20088E18093C100C8
:1005E000EEE1F1E080E091E0918380839383828368
:1005F0000895A4E1B0E0EEEFF2E08DC38090200119
:100600009090210150901E0140901F018E010F5FBC
:100610001F4F5E0185E1A80EB11C38018AE1E82E6A
:1006200081E0F82E96E1C92E91E0D92E7F926F924B
:10063000FF92EF924F925F9204D40F900F900F9021
:100640000F900F900F90019751F0DF92CF924F9241
:100650005F92F7D30F900F900F900F90E7CFF301B9
:1006600081913F018E3211F08032D1F56981062EE1
:10067000000C770B80E090E00AD76A81062E000C10
:10068000770B81E090E003D76B81062E000C770B8F
:1006900082E090E0FCD66C81062E000C770B83E0A4
:1006A00090E0F5D66D81062E000C770B84E090E08B
:1006B000EED66E81062E000C770B85E090E0E7D633
:1006C0007E01F7E0EF0EF11CF80181918F01B4017A
:1006D000082E000C990B54D30E151F05A9F704C062
:1006E000EA15FB0509F0A2CF6496E0E130C3A6E06D
:1006F000B0E0ECE7F3E01BC3009120011091210171
:1007000080E090E0B1D6898381E090E0ADD68A8325
:1007100082E090E0A9D68B8383E090E0A5D68C831D
:1007200084E090E0A1D68D8385E090E09DD68E8315
:10073000B801CE0101965CD32696E4E014C380E1B3
:1007400084B980EC8CBD1EBC08958EBD8EB5089515
:1007500050D1843E09F48FEF59D10895CF93DF93A0
:10076000EB018C3481F4209771F560E070E08FE04C
:1007700090E0EEDC81E379D08BE448D180E03DD19C
:10078000C1E0D0E020C0853589F461307105D9F42D
:1007900061E070E08FE090E0B1DC80E366D08BE454
:1007A00035D180E02AD1C0E0D0E00DC0833459F4C7
:1007B0006130710511F48CE403C0209721F485E5C4
:1007C00025D180E01AD1CE01DF91CF910895CF934A
:1007D000DF93EB01823471F4209751F580E090E0D3
:1007E00005DD81E364D08BE411D180E006D1C1E066
:1007F000D0E01EC0843479F461307105C9F481E021
:1008000090E0F4DC80E353D08BE400D180E0F5D0BD
:10081000C0E0D0E00DC0843559F46130710511F4A9
:1008200082E403C0209721F484E4F0D080E0E5D096
:10083000CE01DF91CF910895CF93DF93EB01813407
:1008400081F46130710539F48FE4E0D080E0D5D0D7
:10085000C0E0D0E006C0209721F486E4D7D080E045
:10086000CCD0CE01DF91CF910895682F880F770B00
:1008700087E090E00CD60895CF93DF9387E090E077
:10088000F3D590ED980F923018F081E3EEDF02C0BF
:10089000813321F4299AC1E0D0E005C0803319F4F6
:1008A0002998C0E0D0E0CE01DF91CF910895682F64
:1008B000880F770B86E090E0EAD50895CF93DF9319
:1008C00086E090E0D1D590ED980F923018F080E35B
:1008D000EEDF08C0813321F4289AC1E0D0E005C0E2
:1008E000803319F42898C0E0D0E0CE01DF91CF9199
:1008F0000895CF93DF93EC0185E090E0ADD5888338
:1009000084E090E0A9D5898383E090E0A5D58A832F
:1009100082E090E0A1D58B83DF91CF910895A4E090
:10092000B0E0E4E9F4E003C28C01CE010196E1DF1E
:10093000D801FE013196AE014B5F5F4F2D91819141
:10094000022E000C330B90E02817390729F4E41726
:10095000F507A1F780E001C081E02496E4E003C23E
:10096000CF93DF93EC01688185E090E082D56981C7
:1009700084E090E07ED56A8183E090E07AD56B8157
:1009800082E090E076D5DF91CF910895A4E0B0E0C9
:10099000EBECF4E0CCC18C0181E392E3A3E3B4E39C
:1009A00089839A83AB83BC83CE010196A2DFF801D1
:1009B0008081918101974097B8F081E3898382E338
:1009C0008A8383E38B8384E38C83CE010196C8DF23
:1009D000FFE926E881E0F15020408040E1F700C0C7
:1009E0000000CE01019685DFCE0101962496E4E059
:1009F000BAC180E090E030D50895682F80E090E0A3
:100A000038D5089581E090E027D50895682F81E0DA
:100A100090E02FD50895A0E2B0E0E0E1F5E07DC1DF
:100A2000F89488E0EEE0F1E0DE01119601900D927D
:100A30008A95E1F784DE78949EDD1EDF7C018130AB
:100A4000910521F0892B19F4DADBD9DBD8DB39DB0E
:100A5000E816F906D9F035DB019759F461E070E04A
:100A60008FE090E075DB81E300DF299AEE24E394C8
:100A7000F12C27DB892B51F460E070E08FE090E0EF
:100A80003DDB80E3F2DE2998E12CF12C17DF5C01DD
:100A9000CE0149967BDF6C01FC01808124DC9A8FBA
:100AA000898FF60181811FDC9C8F8B8FF6018281FB
:100AB0001ADC9E8F8D8FF601838115DC98A38F8FB2
:100AC000812C912C00E010E094DF782EB70146DEF7
:100AD0007C01B501872D7BDE5C01B401872DACDE86
:100AE0004C0189B18F3081F3D0DB90E0F801EE0F3B
:100AF000FF1F21E030E02C0F3D1FE20FF31F918715
:100B00008087892B99F13FEF84E39CE0315080404E
:100B10009040E1F700C00000808591858430910508
:100B200011F461DB1DC082309105A1F411E0AB2806
:100B300009F010E0812F90E059DB112331F081E3BF
:100B4000B6DEAA24A394B12C0BC080E3B0DEA12CA6
:100B5000B12C06C00D9731F446DB88248394912C88
:100B60000FEF1FEF0F5F1F4FC8011CDB0430110593
:100B700009F0AACFAE014F5F5F4FBE01675F7F4FA5
:100B8000CE01499654DC8130910521F4C70187DC00
:100B90007C01BDC0039709F0BAC0898D9A8D9A8BEC
:100BA000898B8B8D9C8D9C8B8B8B8D8D9E8D9E8B45
:100BB0008D8B8F8D98A1988F8F8B612C712C00E07D
:100BC00010E089B18F30D1F060DB90E0F801EE0FDA
:100BD000FF1F21E030E02C0F3D1FE20FF31F918734
:100BE0008087892B59F00F5F1F4F3FEF84E39CE014
:100BF000315080409040E1F700C00000C801E1DAC8
:100C0000EFEF6E1A7E0A0430110544F4E5EC6E161F
:100C1000E9E07E06B4F204E010E0D3CFAE014F5F0E
:100C20005F4FBE01675F7F4FCE01499600DC0197A1
:100C300009F06DC0D5DA612C712C00E010E089B1AB
:100C40008F30D1F022DB90E0F801EE0FFF1F21E0A2
:100C500030E02C0F3D1FE20FF31F918F808F892B07
:100C600059F00F5F1F4F3FEF84E39CE0315080400D
:100C70009040E1F700C00000E5EC6E16E9E07E066A
:100C800094F089899A899A8F898F8B899C899C8F06
:100C90008B8F8D899E899E8F8D8F8F89988D98A33C
:100CA0008F8F04E010E0C8018CDAFFEF6F1A7F0A23
:100CB0000430110524F2CE0149960ADC892B89F40F
:100CC00089899A899A8F898F8B899C899C8F8B8F30
:100CD0008D899E899E8F8D8F8F89988D98A38F8FF8
:100CE000A9DA898D9A8D52DBF60180838B8D9C8DDC
:100CF0004DDBF60181838D8D9E8D48DBF60182836D
:100D00008F8D98A143DBF6018383C60129DE6BDA60
:100D1000D9CE2F923F924F925F926F927F928F9295
:100D20009F92AF92BF92CF92DF92EF92FF920F937A
:100D30001F93CF93DF93CDB7DEB7CA1BDB0B0FB684
:100D4000F894DEBF0FBECDBF09942A883988488841
:100D50005F846E847D848C849B84AA84B984C884D7
:100D6000DF80EE80FD800C811B81AA81B981CE0FCE
:100D7000D11D0FB6F894DEBF0FBECDBFED010895B3
:100D80000F931F93CF93DF93FB01238121FD03C0BA
:100D90008FEF9FEF28C022FF16C046815781248124
:100DA00035814217530744F4A081B1819D012F5F23
:100DB0003F4F318320838C93268137812F5F3F4FB4
:100DC0003783268310C0EB01092F182F0084F1858B
:100DD000E02D0995892BE1F68E819F8101969F83F5
:100DE0008E83812F902FDF91CF911F910F910895C6
:100DF000EF92FF920F931F93CF93DF93DB01139634
:100E00002C9121FF18C08B017C01D0E0C0E0F701DC
:100E100081917F01882361F0D8011896ED91FC91B2
:100E20001997B8010995892B91F3DFEFCFEFEFCF39
:100E30008D2F9C2F02C08FEF9FEFCDB7DEB7E6E07E
:100E400090CFA0E0B0E0E6E2F7E073CFAE01475FFD
:100E50005F4F6F8178858D819E8171D1E2E085CF72
:100E600020FD09C0FC0123FD05C022FF02C07383E1
:100E7000628351834083089544FD10C046FD10C035
:100E8000DB01FC01AA0FBB1FEE1FFF1F1094D1F75F
:100E90006A0F7B1F8E1F9F1F31E003C033E001C02C
:100EA00034E0660F771F881F991F3150D1F7620F0A
:100EB000711D811D911D08950F931F93CF93DF9393
:100EC0008C01C8016FD2EC0197FD06C058D2892B66
:100ED000C1F7B801CE01A4D2CE01DF91CF911F910D
:100EE0000F910895A1E0B0E0E7E7F7E018CF8C019B
:100EF000C62E7A01298356D2AC01552729814B325F
:100F0000510521F04D32510561F42068CA94C11099
:100F100002C080E06FC0C801298344D2298197FDB7
:100F2000F8CF322F3D7FD32E322F307339F58033F7
:100F300029F5BB24BA94BC0C09F449C0C801298323
:100F400031D2298197FD43C0382F3F7D383561F478
:100F50008D2D8264D82ECA94CA94CC20C1F1C801C8
:100F600021D297FF0BC033C026FF04C02D2D226075
:100F7000D22E03C03D2D3261D32ECB2C812C912C4F
:100F8000540120ED280F283078F0D4FE03C0B801BA
:100F900047D21AC02A3040F0D6FEF9CF2F7D3FEE5F
:100FA000320F3630A0F727504D2DC501B40164DF54
:100FB0004B015C018D2D8260D82ECA94CC2051F05B
:100FC000C801F0D197FFDDCFD1FC04C0A2CF812CA6
:100FD000912C5401D7FE08C0B094A09490948094B2
:100FE000811C911CA11CB11C2D2DB501A401C701B0
:100FF00037DF81E02196ECE0AECEA1E2B0E0E2E0A6
:10100000F8E08BCE5C017A01CE0101966C0180E2A2
:10101000F60111928A95E9F7F501838040E050E0EE
:10102000912C712C70E0A1E0B0E0F90183FC859176
:1010300083FE81918F01982F9F01811103C080E071
:1010400090E07AC08E3519F44115510549F1E72F2A
:10105000F0E0E417F5073CF48D3559F18D3219F4C1
:10106000772001F103C0711001C0982E892F869559
:10107000869586958601080F111D892F87703D0181
:1010800001C0660C8A95EAF7F80180818629808381
:10109000991559F0991510F49F5FE8CF9150E6CF5C
:1010A00071E004C07724739401C0712C4F5F5F4FCF
:1010B000BCCF772019F08E8180628E83711103C0BE
:1010C0009924939416C0F6019E012F5D3F4F8081B5
:1010D00080958193E217F307D1F7F2CFE114F10481
:1010E00029F0F7018083C70101967C016150912CA2
:1010F000E9F0C50169A356D169A197FD15C0282F54
:10110000269526952695F601E20FF11D208130E007
:10111000AC014770552702C0359527954A95E2F7EF
:1011200020FDDCCFB5017CD1911089CFE114F10411
:1011300011F0F7011082C801A196EEE00ACE4F929D
:101140005F927F928F929F92AF92BF92CF92DF92E7
:10115000EF92FF920F931F93CF93DF931F92CDB720
:10116000DEB76C012B015A01FC0117821682712C2B
:10117000F601F380F201F3FC8591F3FE8191382FA3
:101180002F01882309F4E5C090E03983F8D0398134
:10119000892B19F0C60190DEEBCF353241F4F20114
:1011A000F3FC3591F3FE31912F01353259F4C6012C
:1011B0003983F8D0398197FDCAC03817C9F2B60112
:1011C0002FD1C7C03A3239F4F3FC3591F3FE319197
:1011D0002F0151E001C050E0420110E020ED230F4B
:1011E0002A3088F45260612F70E080E090E040E2A5
:1011F000598342DE162FF401F3FC3591F3FE319151
:101200004F015981EBCF052F232F240151FF03C03C
:10121000111102C09EC01FEF383619F03C3659F04C
:1012200011C0F401F3FC2591F3FE21912F01283622
:1012300049F4052F08600460F201F3FC2591F3FEE8
:1012400021912F01222309F484C0622F70E084E3EE
:1012500090E029839CD02981892B09F47AC000FD74
:1012600007C0F501E080F180C50102965C0102C073
:10127000E12CF12C2E3649F4F6014681578160E0CD
:1012800070E0202FC701ECDD73CF233689F401FF16
:1012900011E0C60187D097FD5AC0E114F10429F08E
:1012A000F7018083C70101967C01115091F74BC073
:1012B0002B3551F49201A701612FC6019EDE2C014E
:1012C000892B09F040C03AC0C6012983F5DD298188
:1012D00097FD3DC02F3641F128F4243619F1293607
:1012E00031F124C0233769F02537E1F01FC0E11444
:1012F000F10429F0F7018082C70101967C011150A9
:1013000059F0C6014FD04C0197FD06C038D0892B4B
:1013100071F3B601C40184D0E114F104A1F0F70126
:10132000108211C0006203C0006101C00064202F60
:10133000A701612FC601D6DD811105C0F6018381A9
:10134000807329F406C000FD13CF739411CF77206A
:1013500019F0872D90E002C08FEF9FEF0F90DF9183
:10136000CF911F910F91FF90EF90DF90CF90BF90A2
:10137000AF909F908F907F905F904F9008959111C4
:1013800068C0803219F089508550D0F70895FC016B
:101390000590061621F00020D9F7C0010895319775
:1013A000CF010895CF93DF93EC012B8120FF33C051
:1013B00026FF0AC02F7B2B838E819F8101969F83FE
:1013C0008E838A8190E029C022FF0FC0E881F981D5
:1013D0008081082E000C990B009719F420622B8352
:1013E0001AC03196F983E8830EC0EA85FB8509951A
:1013F00097FF09C02B81019611F080E201C080E1C6
:10140000822B8B8308C02E813F812F5F3F4F3F830C
:101410002E83992702C08FEF9FEFDF91CF91089520
:10142000FB01238120FF12C026FD10C08F3F3FEF3C
:10143000930761F082832F7D206423832681378187
:101440002150310937832683992708958FEF9FEF25
:101450000895992788270895F999FECF92BD81BDF7
:10146000F89A992780B50895A8E1B0E042E050E0ED
:1014700013C0262FF999FECF1FBA92BD81BD20BDA2
:101480000FB6F894FA9AF99A0FBE01960895F1DF13
:10149000272FF0CFDC01CB01FC01F999FECF06C06C
:1014A000F2BDE1BDF89A319600B40D924150504022
:0814B000B8F70895F894FFCF8E
:1014B8000000000300000000D202DB02000003006D
:0E14C800030003000300252A730025630000C3
:00000001FF
