:1000000019C020C01FC01EC01DC01CC01BC01AC00C
:1000100019C018C017C016C015C014C013C012C034
:1000200011C010C00FC00EC00DC00CC00BC00AC064
:1000300009C008C011241FBECFEFD4E0DEBFCDBF82
:1000400002D01DC0DDCF459A449A449A80E197E2E0
:10005000459A25E32A95F1F70000459825E32A956E
:10006000F1F700000197A1F744988FEF91EE24E09B
:10007000815090402040E1F700C00000E6CFF894A6
:02008000FFCFB0
:00000001FF
